:1000000020010020D10D00003D0E0000450E000033
:100010004D0E00004D0E00004D0E000000000000CF
:100020000000000000000000000000004D0E000075
:100030004D0E0000000000004D0E00004D0E0000AF
:100040004D0E00004D0E00004D0E00004D0E000044
:100050004D0E00004D0E00004D0E00004D0E000034
:100060004D0E00004D0E00004D0E00004D0E000024
:100070004D0E00004D0E00004D0E00004D0E000014
:100080004D0E00004D0E00004D0E00004D0E000004
:100090004D0E00004D0E00004D0E00004D0E0000F4
:1000A0004D0E00004D0E00004D0E00004D0E0000E4
:1000B0004D0E00004D0E00004D0E00004D0E0000D4
:1000C0004D0E00004D0E00004D0E00004D0E0000C4
:1000D0004D0E00004D0E00004D0E00004D0E0000B4
:1000E0004D0E000000000000000000004D0E00005A
:1000F0004D0E00004D0E00004D0E00004D0E000094
:100100004D0E00004D0E00004D0E00004D0E000083
:1001100000000000000000004D0E00004D0E000029
:100120004D0E00004D0E00004D0E00004D0E000063
:100130004D0E00004D0E00004D0E00004D0E000053
:1001400000000000000000000000000000000000AF
:100150004D0E00004D0E00004D0E00004D0E000033
:10016000000000000000000000000000000000008F
:10017000000000000000000000000000000000007F
:10018000000000000000000000000000000000006F
:10019000000000000000000000000000000000005F
:1001A000000000000000000000000000000000004F
:1001B0004D0E00004D0E00004D0E00004D0E0000D3
:1001C0004D0E00004D0E00004D0E00004D0E0000C3
:1001D0004D0E00004D0E00004D0E00004D0E0000B3
:1001E0004D0E00004D0E00004D0E000000000000FE
:1001F000000000004D0E00004D0E00004D0E0000EE
:100200004D0E00004D0E0000000000000000000038
:100210004D0E00004D0E00004D0E00004D0E000072
:100220004D0E00004D0E00004D0E00004D0E000062
:100230004D0E00004D0E00004D0E00004D0E000052
:100240004D0E00004D0E00004D0E00004D0E000042
:100250004D0E00004D0E00004D0E00004D0E000032
:100260004D0E00004D0E00004D0E000080B483B016
:1002700000AF5B4A5A4B1B6843F001031360584BB5
:100280001B68584A1360584A574B1B6823F0E00319
:100290001360564A554B1B68C3F313031360544A4B
:1002A000534B1B6843F0E0031360524A514B1B68E9
:1002B00023F0E0031360504A4F4B1B6843F0E00308
:1002C00013604E4A4D4B1B6843F0E0031360444AF1
:1002D000434B1B6843F002031360414B1B68414AC8
:1002E0001360474A464B1B6823F0FF031360454BDE
:1002F0001B68444B00221A60434A434B1B6843F07F
:10030000FF031360414A414B1B6823F0FF03136056
:100310003F4A3F4B1B6843F0FF0313603D4A3D4B90
:100320001B6843F0FF0313602D4A2D4B1B6843F0FD
:10033000080313602A4B1B682A4A1360364A364B5F
:100340001B6843F00F031360344A344B1B6823F0DF
:100350000F031360324A324B1B6843F00F031360E4
:100360001F4A1F4B1B6843F0100313602D4B1B6883
:100370007B602D4B2D4A1A602D4B3F221A602D4B6E
:1003800000221A602C4B00221A602C4B00221A60AB
:100390002B4B00221A602B4B3F221A602A4B3F2224
:1003A0001A60204A1F4B1B6843F0200313601D4B4B
:1003B0001B687B60254B1D4A1A60254B01221A6081
:1003C000244B0E221A60244B11221A60234B1F2249
:1003D0001A6000BF0C37BD465DF8047B704700BF54
:1003E00008E10F4038010020284500402C4500401E
:1003F00000440040204400401C45004008450040A7
:10040000285500402C550040005400402054004026
:100410001C55004008550040007400402074004006
:100420001C75004008E60F40204502404B434F4CEE
:1004300024450240284502402C4502400044024029
:1004400020440240104502401C4502402055024015
:100450002455024000540240105502401C550240F1
:1004600080B483B000AF0346FB711E4A1D4B1B686E
:1004700023F0E00313601C4AFB791360194A194BFF
:100480001B6843F080031360164A164B1B6823F069
:1004900060031360154B00221A6004E0134B1B68C5
:1004A0000133124A1360114B1B68002BF6D00D4A22
:1004B0000C4B1B6823F0E00313600C4B00221A6006
:1004C00004E00A4B1B680133084A1360074B1B68A2
:1004D000B3F57A7FF5D300BF0C37BD465DF8047BDA
:1004E000704700BFFC430040FC530040380100202F
:1004F00080B483B000AF0346FB711B4AFB791360E5
:100500001A4A1A4B1B6843F0C0031360174A174B73
:100510001B6823F020031360154B00221A6004E0CF
:10052000134B1B680133124A1360114B1B68162BC7
:10053000F6D90E4A0D4B1B6823F0E00313600C4BF9
:1005400000221A6004E00A4B1B680133084A13605A
:10055000074B1B68B3F57A7FF5D300BF0C37BD4658
:100560005DF8047B704700BFFC530040FC43004033
:100570003801002080B500AFFFF778FE254B002240
:100580001A6004E0234B1B680133224A1360214B9D
:100590001B6843F697229342F4D93820FFF760FF97
:1005A0001C4B00221A6004E01A4B1B680133194AE5
:1005B0001360184B1B6841F287329342F4D93820FC
:1005C000FFF74EFF134B00221A6004E0114B1B682B
:1005D0000133104A13600F4B1B68952BF6D90C2082
:1005E000FFF73EFF0120FFF73BFF0620FFF738FF34
:1005F000084B00221A6004E0064B1B680133054AD1
:100600001360044B1B684CF24F329342F4D900BF85
:1006100080BD00BF3801002080B586B000AFF86013
:10062000B9607A60FB68012B01D1802300E0C02310
:100630007B617B69DAB2BB68DBB21344DBB218467C
:10064000FFF70EFF06E07B685A1C7A601B7818469D
:10065000FFF74EFF7B681B78002BF4D100BF1837E3
:10066000BD4680BD80B500AF114800F062FF01209B
:1006700000F026FF40F2014000F022FF03214FF07E
:10068000402000F00EFF00F065FF014660234FF4AC
:1006900016724FF0402001F00CF800F05BFF0346AB
:1006A0001A464FF41671002000F0D4FB00BF80BD45
:1006B000000800F0B0B58EB000AFFFF7D3FFFFF732
:1006C00059FF974B14221A60964B14221A60964BCE
:1006D0000A221A60924B1B6807EE903AF8EEE77A0E
:1006E00017EE900A01F072F94FF000028F4B01F003
:1006F000C1F903460C4625461C468A4B1B6807EE8B
:10070000903AF8EEE77A17EE900A01F05FF94FF0B1
:100710000002874B01F0AEF902460B4620462946FF
:1007200000F0F6FF03460C4625461C467E4B1B6830
:1007300007EE903AF8EEE77A17EE900A01F046F9E4
:1007400002460B462046294600F0E2FF03460C46CF
:100750001846214601F0A0FB0246764B1A600023A2
:100760007B631E237B611423BB610F23FB61322358
:100770003B6264237B624FF07C533B604FF07E53BF
:100780007B604FF07F53BB60694BFB604FF0804351
:100790003B610023FB620023FB6206E0F96A6648C6
:1007A00000F0BEFDFB6A0133FB62FB6A042BF5DD42
:1007B000624A624B1B6803F0010313601A46604BE8
:1007C0001A605E4A5D4B1B6803F0020313601A4611
:1007D0005C4B1A60594A594B1B6803F004031360C1
:1007E0001A46594B1A60554A544B1B6803F00803CC
:1007F00013601A46554B1A60504A504B1B6803F061
:10080000100313601A46524B1A604C4A4B4B1B683C
:1008100003F0200313601A464E4B1A604E4B1B68C0
:1008200003F001034D4A13604B4B1B6803F01003A8
:100830004B4A13607B6B002B40F00781404B1B68D9
:10084000002B21D1474A00210120FFF7E5FE464A4F
:1008500000210120FFF7E0FE3B6B01333B63434B7C
:10086000D3ED007AB5EE007A77EE877A3F4BC3ED91
:10087000007A3F4B1B6801333D4A1360284B1B68CD
:100880000133274A13609CE12E4B1B68002B21D1BA
:10089000344A00210120FFF7BFFE364A0021012023
:1008A000FFF7BAFE3B6B01333B63304BD3ED007A6D
:1008B000B6EE007A77EE877A2C4BC3ED007A2E4B9A
:1008C0001B6801332C4A1360164B1B680133154A11
:1008D000136076E11C4B1B68002B53D1214A002189
:1008E0000120FFF799FE254A00210120FFF794FE21
:1008F0003B6B01333B631D4BD3ED007AB7EE007ABF
:1009000077EE877A194BC3ED007A1D4B1B680133D4
:100910001B4A1360044B1B680133034A136050E108
:10092000040000200C000020140000200000D03F34
:100930000000E03F18000020381F0000FC43024088
:100940004001002034010020240100202C0100205F
:100950003001002044010020FC5302403C010020F3
:1009600028010020441F0000541F00001C0000202C
:1009700000000020601F0000080000206C1F000025
:1009800010000020B14B1B68002B55D1B04B1B68E9
:1009900007EE903AF8EEE77A17EE900A01F016F8B3
:1009A0004FF00002AB4B01F065F803460C462546BC
:1009B0001C46A94B1B6807EE903AF8EEE77A17EE53
:1009C000900A01F003F84FF00002A44B01F052F836
:1009D00002460B462046294600F09AFE03460C4686
:1009E00025461C469E4B1B6807EE903AF8EEE77AC8
:1009F00017EE900A00F0EAFF02460B462046294611
:100A000000F086FE03460C461846214601F044FAE3
:100A10000246944B1A60944A00210120FFF7FCFD26
:100A2000924A00210120FFF7F7FD7B6B01337B63C6
:100A30003B6B01333B63C4E08D4B1B68002B40F0E4
:100A4000C0803B6B01333B6396E17B6B012B40F035
:100A5000B880884B1B68002B1AD1834A00210120E3
:100A6000FFF7DAFD844A00210120FFF7D5FD7B69FD
:100A7000013B7B617B4B93ED007AD7ED007A77EEFB
:100A8000677A784BC3ED007A3B6B01333B6398E0A8
:100A90007A4B1B68002B1AD1734A00210120FFF703
:100AA000BBFD774A00210120FFF7B6FDBB69013B82
:100AB000BB616C4B93ED007AD7ED017A77EE677AE4
:100AC000684BC3ED007A3B6B01333B6379E06D4BC0
:100AD0001B68002B1AD1644A00210120FFF79CFDFE
:100AE000694A00210120FFF797FDFB69013BFB618B
:100AF0005C4B93ED007AD7ED027A77EE677A594B2B
:100B0000C3ED007A3B6B01333B635AE05F4B1B68DC
:100B1000002B1AD1544A00210120FFF77DFD5C4AC9
:100B200000210120FFF778FD3B6A013B3B624D4B02
:100B300093ED007AD7ED037A77EE677A494BC3EDF0
:100B4000007A3B6B01333B633BE0524B1B68002B4D
:100B50001AD1454A00210120FFF75EFD4E4A0021CF
:100B60000120FFF759FD3F4B93ED007AD7ED047A52
:100B700077EE677A3B4BC3ED007A7B6A013B7B6281
:100B80003B6B01333B631CE0304B1B68002B10D1E7
:100B90007B6B01337B63344A00210120FFF73CFD6E
:100BA0003E4A00210120FFF737FD3B6B01333B63D9
:100BB00007E02F4B1B68002B03D13B6B01333B63DA
:100BC000DAE03A6B364B1340002B03DA013B63F05B
:100BD00003030133BB62BB6A022B71D1224A00219D
:100BE0000120FFF719FD2F4A00210120FFF714FD16
:100BF0002D4A2D4B1B6843F0020313602A4A2A4BEF
:100C00001B6823F001031360284B00221A6004E0E4
:100C1000264B1B680133254A1360244B1B68244A6A
:100C20009342F5D9234B14221A60234B14221A60E5
:100C3000224B0A221A601E237B611423BB610F23FF
:100C4000FB6132233B6264237B6295E03C01002020
:100C5000000000200000D03F080000200000E03F1E
:100C60001000002018000020441F0000741F000026
:100C70002801002040010020841F000034010020D2
:100C8000901F0000240100209C1F00002C01002068
:100C9000AC1F000044010020C01F0000D01F000056
:100CA00003000080DC1F0000FC73004038010020BE
:100CB0007F1A0600040000200C0000201400002011
:100CC0002E4A2E4B1B6843F0010313602B4A2B4B1B
:100CD0001B6823F002031360294B00221A6004E012
:100CE000274B1B680133264A1360254B1B68254A96
:100CF0009342F5D9396B244800F012FB234B1B6853
:100D00001946234800F00CFB224B1B681946224869
:100D100000F006FB214B1B681946214800F000FB40
:100D2000204B1B681946204800F0FAFA1F4B1B683D
:100D300019461F4800F0F4FA1E4B1B6819461E485E
:100D400000F0EEFA7B6919461C4800F0E9FABB692D
:100D500019461B4800F0E4FAFB691946194800F0EF
:100D6000DFFA3B6A1946184800F0DAFA7B6A19463E
:100D7000164800F0D5FA1BE51AE500BFFC730040E9
:100D8000380100207F1A0600EC1F00000000002040
:100D900000200000080000201420000010000020A7
:100DA0002820000004000020382000000C00002053
:100DB0004820000014000020582000006820000097
:100DC00074200000802000008C2000009C20000087
:100DD00080B582B000AF134B7B60134B3B6007E0E4
:100DE0003B681A1D3A607A68111D796012681A60B2
:100DF0003B680E4A9342F3D30E480F494FF000026E
:100E00008842B8BF40F8042BFADB094A084B1B683C
:100E100043F470031360FFF74DFC00BF0837BD4675
:100E200080BD00BF00220000000000200000002064
:100E300088ED00E0000000204801002080B400AFF1
:100E4000FEE700BF80B400AFFEE700BF80B400AF94
:100E5000FEE700BF80B584B000AFF860B9607A608B
:100E6000154AFB6852F82330184600F04FFB034642
:100E700083F00103DBB2002B19D1104AFB6852F852
:100E800023300F4A13600C4AFB6852F8233018468F
:100E900000F04FFB0A4B18686023BA68796800F0CD
:100EA00008FC074B1B68184600F0EAFB00E000BF97
:100EB0001037BD4680BD00BFE0200000D4200000F8
:100EC0002001002080B584B000AF78603960002335
:100ED000FB601AE07A68FB68134493F900300A2B30
:100EE00005D10E4B1B680D21184600F006FC0B4B7C
:100EF00018687A68FB68134493F90030DBB219462E
:100F000000F0FBFBFB680133FB60FA683B689A4228
:100F1000E0D3FB6818461037BD4680BD2001002095
:100F200090B58FB000AF78603960E8E100237B6353
:100F300002E07B6B01337B637A687B6B134493F92C
:100F40000030252B06D07A687B6B134493F9003070
:100F5000002BEED1796B7868FFF7B4FF7A687B6B72
:100F600013447B607B6893F90030252B40F0C781E8
:100F70007B6801337B600023FB62202387F82330EA
:100F80007B685A1C7A6093F90030253B532B00F2A2
:100F9000B18101A252F823F0E7120000F51200001F
:100FA000F5120000F5120000F5120000F512000025
:100FB000F5120000F5120000F5120000F512000015
:100FC000F5120000E9100000E9100000E91000002F
:100FD000E9100000E9100000E9100000E91000002D
:100FE000E9100000E9100000E9100000F51200000F
:100FF000F5120000F5120000F5120000F5120000D5
:10100000F5120000F5120000F5120000F5120000C4
:10101000F5120000F5120000F5120000F5120000B4
:10102000F5120000F5120000F5120000F5120000A4
:10103000F5120000F5120000F5120000F512000094
:10104000F5120000F5120000F5120000F512000084
:10105000F5120000F5120000F5120000F512000074
:10106000F5120000CF110000F5120000F51200008B
:10107000F5120000F5120000F5120000F512000054
:10108000F5120000F5120000F5120000F512000044
:101090002111000039110000F5120000F5120000C6
:1010A000F5120000F512000039110000F5120000E1
:1010B000F5120000F5120000F5120000F512000014
:1010C000F5120000CF110000F5120000F51200002B
:1010D00063110000F5120000B7110000F5120000C6
:1010E000F5120000CF1100007B68013B93F900303E
:1010F000302B05D1FB6A002B02D1302387F8233037
:10110000FA6A13469B0013445B00FB627B68013B59
:1011100093F900301A46FB6A1344303BFB622FE719
:101120003B681A1D3A601B68BB6107F11803012177
:101130001846FFF7C7FEE2E03B681A1D3A601B68DD
:10114000BB6100233B63BB69002B05DABB695B42D3
:10115000BB6101237B6201E000237B620A23BB6247
:1011600040E03B681A1D3A601B68FB6100237B630B
:1011700002E07B6B01337B63FA697B6B134493F969
:101180000030002BF5D1796BF869FFF79BFEFA6A06
:101190007B6B9A4240F2B380FA6A7B6BD31AFB6294
:1011A00003E001215B48FFF78DFEFB6A5A1EFA62DD
:1011B000002BF6D1A3E03B681A1D3A601B68BB61A7
:1011C00000233B630A23BB6200237B620AE03B6887
:1011D0001A1D3A601B68BB6100233B631023BB628E
:1011E00000237B6201237B6307E07B6BBA6A02FB0F
:1011F00003F37B63FB6A013BFB627B6BBA6A02FB16
:1012000003F2BB699A4209D87B6BBA6A02FB03F20C
:10121000BB6AB2FBF3F27B6B9A42E6D07B6A002B8F
:1012200002D0FB6A013BFB627B6A002B0ED097F970
:101230002330302B0AD13B6B5A1C3A6307F138023A
:1012400013442D2203F8302C00237B62FB6A012B10
:1012500016D9FB6A0F2B13D8FB6A013BFB620CE02B
:101260003B6B5A1C3A6307F13802134497F823206A
:1012700003F8302CFB6A013BFB62FB6A002BEFD1C9
:101280007B6A002B25D03B6B5A1C3A6307F138026E
:1012900013442D2203F8302C1BE03B6B5A1C3A639D
:1012A0001D4CB9697A6BB1FBF2F2B96AB2FBF1F18C
:1012B000B86A00FB01F1521A224492F9002007F1AA
:1012C00038010B4403F8302C7A6BBB6AB2FBF3F3A2
:1012D0007B637B6B002BE0D107F10803396B184669
:1012E000FFF7F0FD0BE07B68013B01211846FFF79B
:1012F000E9FD04E005210948FFF7E4FD00BF7B6834
:1013000093F90030002B7FF411AE00BF3C37BD468F
:1013100090BD00BFC8200000AC200000CC20000021
:101320000FB480B582B000AF07F114037B60796819
:101330003869FFF7F5FD00BF0837BD46BDE88040BE
:1013400004B07047D0F8003412F0010F10B500F56A
:10135000806414BF0B438B43236012F0020FD0F85C
:10136000202400F5846314BF114322EA01011960AF
:1013700010BDF0B5C2F34116002441FA04F5ED07A3
:1013800011D5D0F8C47F65004FF0030C0CFA05FCB2
:1013900027EA0C07C0F8C47FD0F8C47F06FA05F529
:1013A0003D43C0F8C45F0134082CE6D1D0F80045B5
:1013B00012F0010F00F5A06514BF0C438C432C60A4
:1013C000D0F8044512F0020F00F2045514BF0C438C
:1013D0008C432C60D0F8084512F0040F00F5A1658D
:1013E00014BF0C438C432C60D0F8184512F0080F42
:1013F00000F5A36514BF0C438C432C6012F0100F52
:10140000D0F83C2500F23C5414BF0A438A432260C2
:10141000D0F80C2513F0010F00F20C5414BF0A434E
:101420008A432260D0F8102513F0020F00F5A26461
:1014300014BF0A438A432260D0F8142513F0040F26
:1014400000F2145414BF0A438A432260D0F81C25CA
:1014500013F0080F00F21C5414BF0A438A432260A1
:10146000D0F8442513F4007F00F2445414BF0A431B
:101470008A432260D0F8402513F4407F00F5A86429
:1014800014BF0A438A43226000F5A5621BB9D0F855
:101490002805014303E0D0F8283523EA0101116053
:1014A000F0BD70B5022205460C46FFF74BFF2846FB
:1014B000214601220823BDE87040FFF75ABF000013
:1014C000104BC0F3074210B501211C680E4B01FA06
:1014D00002F121424FEA420218BF01320F2153F8B4
:1014E0002230C0F30722D3F82C4501FA02F100F0B4
:1014F0000F0024EA010100FA02F21143C3F82C158F
:1015000010BD00BF6CE00F40EC200000C3B2C0F380
:101510000720990000F57E2341F0844203F54071D5
:1015200021F4700042EA40121368181C18BF012011
:101530007047C3B2C0F30720990000F57E2341F045
:10154000844203F5C06121F4700042EA4012012395
:10155000136070473F4B19681A69002AB4BF02F044
:10156000700301F03003202B70B515D004D853B1AF
:10157000102B6DD1384B10E0302B0AD0702B67D177
:101580004FF4004309E0C1F38410344B53F820308A
:1015900003E047F2305300E0314B002A02DA12F444
:1015A000006F01E011F4006F32D12E4D2C686D6890
:1015B00005F01F06701C4600C5F30420013070437F
:1015C000B3FBF0F0A305C4F3892444439B0DA40AA4
:1015D00003FB00432448006800F47040B0F5804FDE
:1015E00041F4800110D007D8B0F5005F13D0B0F5FA
:1015F000405F0DD11D480FE0B0F5E04F06D0B0F5CB
:10160000104F05D11A4807E01A4805E01A4803E0D0
:101610004FF0FF3000E0194811F4800F14D0002A79
:101620000DDA510005D5110503D45B00C2F38652D3
:1016300001E0C2F3C552511CB3FBF1F304E0C1F366
:10164000C352511CB3FBF1F3834238BF184670BD3F
:10165000002070BD60E00F400024F4007C210000F9
:1016600000093D0060E10F4010E00F4080F0FA02F9
:10167000002D3101005A620240787D0100B4C4049B
:10168000C36A43F01001C162026B42F4407343F03D
:1016900001010163704783691B07FCD4C16A21F013
:1016A0001002C262036B23F4407121F00102026355
:1016B0007047F8B504460E4615461F46FFF7EBFF88
:1016C000B6EB051F236B04D243F0200121636D08A4
:1016D00002E023F020002063F600B6FBF5F2551C73
:1016E000EB090020C5F345056362A562E762A061CE
:1016F0002046BDE8F840FFF7C3BF83699A06FCD4D3
:101700000160704781F0004102E000BF83F00043B8
:1017100030B54FEA41044FEA430594EA050F08BF8C
:1017200090EA020F1FBF54EA000C55EA020C7FEA50
:10173000645C7FEA655C00F0E2804FEA5454D4EBCD
:101740005555B8BF6D420CDD2C4480EA020281EA97
:10175000030382EA000083EA010180EA020281EACF
:101760000303362D88BF30BD11F0004F4FEA013121
:101770004FF4801C4CEA113102D0404261EB410130
:1017800013F0004F4FEA03334CEA133302D05242B6
:1017900063EB430394EA050F00F0A780A4F1010472
:1017A000D5F1200E0DDB02FA0EFC22FA05F28018AC
:1017B00041F1000103FA0EF2801843FA05F3594192
:1017C0000EE0A5F120050EF1200E012A03FA0EFC11
:1017D00028BF4CF0020C43FA05F3C01851EBE3713B
:1017E00001F0004507D54FF0000EDCF1000C7EEB58
:1017F00000006EEB0101B1F5801F1BD3B1F5001F96
:101800000CD349085FEA30004FEA3C0C04F10104B4
:101810004FEA445212F5800F80F09A80BCF1004FDD
:1018200008BF5FEA500C50F1000041EB045141EA5F
:10183000050130BD5FEA4C0C404141EB010111F460
:10184000801FA4F10104E9D191F0000F04BF01460B
:101850000020B1FA81F308BF2033A3F10B03B3F1E9
:1018600020020CDA0C3208DD02F1140CC2F10C0279
:1018700001FA0CF021FA02F10CE002F11402D8BFD7
:10188000C2F1200C01FA02F120FA0CFCDCBF41EAA3
:101890000C019040E41AA2BF01EB0451294330BD72
:1018A0006FEA04041F3C1CDA0C340EDC04F114044F
:1018B000C4F1200220FA04F001FA02F340EA030026
:1018C00021FA04F345EA030130BDC4F10C04C4F16C
:1018D000200220FA02F001FA04F340EA030029464C
:1018E00030BD21FA04F0294630BD94F0000F83F496
:1018F000801306BF81F480110134013D4EE77FEA79
:10190000645C18BF7FEA655C29D094EA050F08BFC4
:1019100090EA020F05D054EA000C04BF19461046A5
:1019200030BD91EA030F1EBF0021002030BD5FEAE9
:10193000545C05D14000494128BF41F0004130BD11
:1019400014F580043CBF01F5801130BD01F0004565
:1019500045F0FE4141F470014FF0000030BD7FEAD8
:10196000645C1ABF194610467FEA655C1CBF0B46D3
:10197000024650EA013406BF52EA033591EA030FEA
:1019800041F4002130BD00BF90F0000F04BF0021E2
:10199000704730B54FF4806404F132044FF0000515
:1019A0004FF0000150E700BF90F0000F04BF00218E
:1019B000704730B54FF4806404F1320410F00045F4
:1019C00048BF40424FF000013EE700BF42004FEAEF
:1019D000E2014FEA31014FEA02701FBF12F07F436C
:1019E00093F07F4F81F06051704792F0000F14BF69
:1019F00093F07F4F704730B54FF4607401F00045AD
:101A000021F0004120E700BF50EA010208BF704703
:101A100030B54FF000050AE050EA010208BF7047F8
:101A200030B511F0004502D5404261EB41014FF461
:101A3000806404F132045FEA915C3FF4DCAE4FF065
:101A400003025FEADC0C18BF03325FEADC0C18BF4C
:101A5000033202EBDC02C2F1200300FA03FC20FA9D
:101A600002F001FA03FE40EA0E0021FA02F11444EA
:101A7000C1E600BF70B54FF0FF0C4CF4E06C1CEAFF
:101A800011541DBF1CEA135594EA0C0F95EA0C0F74
:101A900000F0DEF82C4481EA030621EA4C5123EAE7
:101AA0004C5350EA013518BF52EA033541F4801116
:101AB00043F4801338D0A0FB02CE4FF00005E1FBC9
:101AC00002E506F00042E0FB03E54FF00006E1FB13
:101AD00003569CF0000F18BF4EF0010EA4F1FF0456
:101AE000B6F5007F64F5407404D25FEA4E0E6D4196
:101AF00046EB060642EAC62141EA55514FEAC520A7
:101B000040EA5E504FEACE2EB4F1FD0C88BFBCF522
:101B1000E06F1ED8BEF1004F08BF5FEA500E50F1D3
:101B2000000041EB045170BD06F0004646EA010199
:101B300040EA020081EA0301B4EB5C04C2BFD4EBCB
:101B40000C0541EA045170BD41F480114FF0000EC4
:101B5000013C00F3AB8014F1360FDEBF002001F032
:101B6000004170BDC4F10004203C35DA0C341BDCAC
:101B700004F11404C4F1200500FA05F320FA04F07E
:101B800001FA05F240EA020001F0004221F00041B2
:101B900010EBD37021FA04F642EB06015EEA430E25
:101BA00008BF20EAD37070BDC4F10C04C4F1200555
:101BB00000FA04F320FA05F001FA04F240EA020008
:101BC00001F0004110EBD37041F100015EEA430ED9
:101BD00008BF20EAD37070BDC4F1200500FA05F2F9
:101BE0004EEA020E20FA04F301FA05F243EA020378
:101BF00021FA04F001F0004121FA04F220EA020087
:101C000000EBD3705EEA430E08BF20EAD37070BDCC
:101C100094F0000F0FD101F00046400041EB0101AC
:101C200011F4801F08BF013CF7D041EA060195F08E
:101C3000000F18BF704703F00046520043EB030348
:101C400013F4801F08BF013DF7D043EA0603704735
:101C500094EA0C0F0CEA135518BF95EA0C0F0CD040
:101C600050EA410618BF52EA4306D1D181EA030186
:101C700001F000414FF0000070BD50EA410606BF80
:101C80001046194652EA430619D094EA0C0F02D1C5
:101C900050EA013613D195EA0C0F05D152EA03360A
:101CA0001CBF104619460AD181EA030101F0004128
:101CB00041F0FE4141F470014FF0000070BD41F071
:101CC000FE4141F4780170BD70B54FF0FF0C4CF44B
:101CD000E06C1CEA11541DBF1CEA135594EA0C0F6A
:101CE00095EA0C0F00F0A7F8A4EB050481EA030EB7
:101CF00052EA03354FEA013100F088804FEA03339E
:101D00004FF0805545EA131343EA12634FEA02226B
:101D100045EA111545EA10654FEA00260EF000412C
:101D20009D4208BF964244F1FD0404F5407402D27E
:101D30005B084FEA3202B61A65EB03055B084FEA0F
:101D400032024FF480104FF4002CB6EB020E75EB0C
:101D5000030E22BFB61A754640EA0C005B084FEA34
:101D60003202B6EB020E75EB030E22BFB61A7546B1
:101D700040EA5C005B084FEA3202B6EB020E75EBFC
:101D8000030E22BFB61A754640EA9C005B084FEA74
:101D90003202B6EB020E75EB030E22BFB61A754681
:101DA00040EADC0055EA060E18D04FEA051545EA70
:101DB00016754FEA06164FEAC30343EA52734FEA19
:101DC000C2025FEA1C1CC0D111F4801F0BD141EA92
:101DD00000014FF000004FF0004CB6E711F4801FF7
:101DE00004BF01430020B4F1FD0C88BFBCF5E06FD7
:101DF0003FF6AFAEB5EB030C04BFB6EB020C5FEAE7
:101E0000500C50F1000041EB045170BD0EF0004E3B
:101E10004EEA113114EB5C04C2BFD4EB0C0541EA6D
:101E2000045170BD41F480114FF0000E013C90E66A
:101E300045EA060E8DE60CEA135594EA0C0F08BF2E
:101E400095EA0C0F3FF43BAF94EA0C0F0AD150EA2D
:101E500001347FF434AF95EA0C0F7FF425AF1046C0
:101E600019462CE795EA0C0F06D152EA03353FF4E8
:101E7000FDAE1046194622E750EA410618BF52EA65
:101E800043067FF4C5AE50EA41047FF40DAF52EA39
:101E900043057FF4EBAE12E74FEA4102B2F1E043B3
:101EA00024BFB3F5001CDCF1FE5C0DD901F0004C41
:101EB0004FEAC0024CEA5070B2F1004F40EB830091
:101EC00008BF20F00100704711F0804F21D113F1BD
:101ED0003872BCBF01F00040704741F480114FEAF6
:101EE0005252C2F11802C2F1200C10FA0CF320FA7F
:101EF00002F018BF40F001004FEAC1234FEAD3239C
:101F000003FA0CFC40EA0C0023FA02F34FEA430305
:101F1000CCE77FEA625307D150EA01331EBF4FF08E
:101F2000FE4040F44000704701F0004040F0FE40A9
:101F300040F40000704700BF746573743A20256454
:101F40000A00000020202020202020202020202007
:101F500020202000302E3235206B75727573000002
:101F6000302E3530206B75727573000031206C692E
:101F700072610000746F706C616D20706172613A03
:101F8000200000005375203A20302E3520546C007C
:101F9000436179203A203120546C00004B6168760F
:101FA00065203A20312E3520546C000043696B6F58
:101FB0006C617461203A20312E373520546C00005A
:101FC0004269736B757669203A203220546C0000A8
:101FD00049736C656D206269747469005061726147
:101FE0002073696B697374692E000000546F706C04
:101FF000616D206275746F6E203A2025640A0000BE
:10200000736179616320302E3235203A2025640ACD
:1020100000000000736179616320302E3530203A72
:102020002025640A0000000073617961632031207B
:102030003A2025640A00000073746F6B20302E3242
:1020400035203A2025640A0073746F6B20302E35DA
:1020500030203A2025640A0073746F6B2031203AD7
:102060002025640A000000005375203A2025640AE8
:1020700000000000436179203A2025640A00000036
:102080004B61687665203A2025640A0043696B6FCE
:102090006C617461203A2025640A00004269736B08
:1020A000757669203A2025640A0000003031323309
:1020B0003435363738396162636465660000000084
:1020C000082008000D0A0000200000004552524F71
:1020D0005200000000C0004000D0004000E000407E
:1020E000001800F0011800F0021800F00040004055
:1020F0000080054000500040009005400060004016
:1021000000A005400070004000B0054000400240C3
:1021100000C005400050024000D005400060024071
:1021200000E005400070024000F0054000D0034090
:102130000000064000100640001006400020064047
:1021400000200640003006400030064000400640B7
:102150000040064000500640005006400060064027
:102160000060064000700640007006400080064097
:1021700000800640009006400090064040420F005C
:1021800000201C0080841E0000802500999E3600DF
:102190000040380000093D0000803E0000004B0078
:1021A000404B4C0000204E00808D5B0000C05D0065
:1021B0000080700000127A0000007D008096980078
:1021C000001BB7000080BB00C0E8CE00647ADA00D4
:1021D0000024F4000000FA0080A81201002D310153
:1021E00000366E0140787D01F8B500BFF8BC08BC30
:1021F0009E467047F8B500BFF8BC08BC9E467047C5
:00000001FF
